:020000040000FA
:020000001428C2
:08000800A50B0D281508A3004B
:100010001608A20003150C1109001508A100160806
:10002000A00003110C110900831608308600811707
:10003000831206150230A500013090008E018F0159
:1000400097010530970003110C11C0308B00831607
:1000500004308C00831286160000000000000000AF
:100060008612031D31288B018316811383122410FD
:100070002108A302031C24142008A2022418A203AE
:100080004B30A600E830A7000330B100A8010030D3
:100090002306031D4F2800302206031908000030F4
:1000A0002606031966282308A9002208B000A60B1B
:1000B0005A2869282908A307031C6128A20F612870
:1000C000A80A3008A2070318A20A5728A301A20110
:1000D0006928A901B00100302706031D73280030EC
:1000E0003106031908002308B2002208B3002708CC
:1000F000A30203187F280130A202031C84283108C0
:10010000A202031C842889280130A802031C8D2820
:100110008928A90F7328B00A73286430B8000A3000
:10012000B900C401B601B5012908C6003008C500F0
:100130003808A9020318A0280130B002031CA42823
:10014000C40F9428BA0A9428B601B5014608B6002F
:0E0150003908C602031C0800B50AA6281428A8
:02400E00E13F90
:00000001FF
