:020000040000FA
:10000000012883167A3086008312861E05283F2039
:1000100006151720061186181C2086192B20061A93
:100020002120061B3620061517200611052817303B
:10003000A000A00B19280800FD30A000A00B1E286E
:100040001328E430A0000430A100A00B2528A10B48
:100050002528000013287D30A0000330A100A00B4C
:100060002F28A10B2F280230A20013287330A000E4
:100070000630A100A00B3A28A10B3A2808007430E2
:0A008000A000A00B412800000800BA
:02400E00E13F90
:00000001FF
